:060000000A128A110E280D
:10000800FE00030EF6000408F7000A08F8000A12BA
:100018008A15CA2B0A128A1111280A128A11FE2778
:100028000A128A11ED000A128A11FF270A128A1190
:10003800EE008313A0308400B5300A168A11DD253E
:100048000A128A115A3084006D300A168A11DD2589
:100058000A128A11F001F101F201F301F40183019E
:100068000A128A116E2C83120313C101AF1F3D2897
:100078003E284928AE09AF09AE0A0319AF0A2D3048
:100088000A128A15E2210A128A11831203132E0812
:100098002F04031D50285128852830300A128A154C
:1000A800E2210A128A11BE28831203134108323E44
:1000B80084000A30A0000030A1002F08A3002E08F9
:1000C800A2000A128A152F210A128A118312031319
:1000D8002008303E831380000130C1070A30A60093
:1000E8000030A7002F08A9002E08A8000A128A15B8
:1000F800FF220A128A11831203132708AF00260869
:10010800AE002F08803AFF0080307F02031D8E2842
:1001180001302E02031891289228582883120313BD
:100128004108C000C101AC283230B0004108B0021B
:1001380040083007B1003108FF3E840083130008EF
:10014800FF004108393E84007F0880000130C10764
:1001580040084102031CB128B22898284008393EBB
:100168008400831380013930A3000A168A1193266C
:100178000A128A11080083120313A700AA300A166C
:100188008A1165260A128A1101300A168A11652613
:100198000A128A118312031327080A168A11652680
:1001A8000A128A118312031322080A168A11652675
:1001B8000A128A118312031323080A168A11652664
:1001C8000A128A118312031325080A168A11652652
:1001D8000A128A118312031324080A168A11652643
:1001E8000A128A118312031326080A168A11652631
:0601F8000A128A11080042
:10020000FF1B0A2983137F1883170008840A031928
:10021000FF0A08007F087F398A000408840A03194E
:10022000FF0A82006034093400340034A0342834DA
:10023000003400345734613472346E343A3420342C
:1002400053346F3469346C34203457346534743427
:100250002034203400345734613472346E343A34EC
:100260002034483469346734683420345434653475
:100270006D347034203400345734613472346E3449
:100280003A3420344C346F3477342034573461346A
:100290007434653472342034003457346134723429
:1002A0006E343A3420344834693467346834203446
:1002B0004334753472347234203400344C344F3447
:1002C00043344B344F345534543421344C346F342C
:1002D00077345734613474346534723400344C34B8
:1002E0004F3443344B344F345534543421344F3429
:1002F000763465347234773474346534723400344F
:100300004C344F3443344B344F345534543421340B
:100310004F34763465347234433475347234723405
:1003200000344C344F3443344B344F34553454340C
:1003300021344F3476346534723468346534613432
:100340007434003474346F342034333463346D3493
:1003500020342034203420342034203420342034FD
:1003600020342034003452346534733475346D34A1
:100370006534643420342034203420342034203454
:10038000203420342034003474346F342034313439
:10039000333463346D34203420342034203420341A
:1003A00020342034203420340034533474346F34F7
:1003B0007034703469346E3467342E342E342E34F5
:1003C0002034203420342034203400344434653444
:1003D0006234753467343A342034533465346E34BF
:1003E000733465342B3420342034203400345234B8
:1003F000653473346534743420346D346F3474343C
:100400006F3472342D343E34303420342034003490
:10041000503468346F3474346F3420345034693459
:10042000703465346C3469346E346534203420346F
:100430000034503469343A342034753470346C34B8
:100440006F346134643469346E3467342E342E343E
:100450002E34003441347434203468346F346D34B5
:1004600065342E342034573461346934743469343B
:100470006E346734003448346F346D3469346E340C
:1004800067342E342E342E3420342034203420345B
:1004900020342034203400344D3461346E347534CB
:1004A00061346C342034503475346D3470342034FD
:1004B0004F34463446342034003453346F34693476
:1004C0006C3420344F344B342D3453346B34693412
:1004D0007034703469346E34673400344D346F34A2
:1004E000763469346E34673420342D343E3420340D
:1004F0005034003425342034203420342034203447
:100500002034203420342034003463346D342034DB
:10051000203420342034203420342034203400345B
:1005200045342D34533454344F34503420346134F2
:100530007434203400345734613474346534723484
:1005400069346E3467342034503400342534203418
:10055000203420342034203420342034203400341B
:1005600043342034203420342034203420342034C8
:10057000203400344D3461346E34753461346C345D
:100580003A3420345034003420344F344E34203444
:10059000203420342034203400344D3461346E341F
:1005A000753461346C342034503400346D3441344B
:1005B00020342034203420342034003444346F3448
:1005C0006E346534203420345034003463346D3458
:1005D000203420342034003453346F3469346C3484
:1005E0003A340034543465346D3470343A34003461
:1005F000483475346D343A340034573474347234BA
:100600003A3400344334753472343A34003483124B
:100610000313B500AD01AE0102303502031C112BEE
:10062000122B132B6D2C3508A50001300310A50DDE
:10063000FF3E031D162B0310250D123E8400813052
:100640000318013EFF000A128A1100210A128A11C2
:10065000A9000A128A1100210A128A11AA000A129C
:100660008A1100210A128A11AB000A128A11002194
:100670000A128A11AC002908A5002A08A6002B0836
:10068000A7002C08A800831603132D088312031358
:10069000A502831603132E08031C2E0F502B532B79
:1006A00083120313A602831603132F08031C2F0FB4
:1006B0005A2B5D2B83120313A702831603133008F2
:1006C000031C300F642B672B83120313A8028316BD
:1006D0000313831203132808B9002708B80026085B
:1006E000B7002508B600B91B762B772B802B39086D
:1006F000B4003808B3003708B2003608B1008F2BB9
:100700003609B1003709B2003809B3003909B4001D
:10071000B10A0319B20A0319B30A0319B40AFB3068
:100720008705B91BA32B3908031DA42B3808031D0B
:10073000A42B3708031DA42B01303602031DA02B68
:10074000031CA32BA42BA82B831203138714632C45
:10075000FD30831203138705632C0A168A113C2689
:100760000A128A11013083120313A5000030A6007B
:100770000030A7000030A8002508B1022608031C9D
:10078000260FC32BC42BB2022708031C270FC92B2B
:10079000CA2BB3022808031C280FCF2BD02BB4027E
:1007A000B91BE32B3908031DE22B3808031DE22B8C
:1007B0003708031DE22B01303602031DDF2B03181F
:1007C000E22BE32BEA2BFF3083120313AF00FF3041
:1007D000B000F02B013083120313AF000030B000E3
:1007E0002F08A5003008A6000030A61BFF30A70088
:1007F000A800250883160313AD07831203132608E8
:1008000003110318013E0319082C83160313AE07C6
:1008100083120313270803110318013E0319132C35
:1008200083160313AF078312031328080311031859
:10083000013E03191E2C83160313B0078312031302
:1008400083160313013083120313AD070318AE0A96
:100850000030AE071930A0000030A1002E08A30020
:100860002D08A2000A168A11C6270A128A118312BD
:10087000031320082104031D3E2C3F2C632C0A1275
:100880008A1512200A128A110A128A153A240A12AB
:100890008A110A168A11D1250A128A11003A031DFB
:1008A000522C532C5D2C0A168A11D5250A128A1156
:1008B000003A03195C2C5D2C632C0A168A11D92589
:1008C0000A128A116D2C8312031334083304320484
:1008D0003104031D6C2C6D2CAD2B08008316031303
:1008E000B80184309F00073085008312031386010E
:1008F0001B3083160313860080308700880189012E
:100900007F30810583120313620888000715F730D2
:100910008705FD308705FE308705EF30870507170F
:10092000FB308605FD308905FB3089050A168A11E2
:1009300050260A128A110A168A11EF250A128A1104
:100940000A128A151E260A128A110A168A11E5252C
:100950000A128A110A168A11CD250A128A110A165C
:100960008A1117260A128A1183120313A301A30AFC
:1009700001300A168A112F270A128A11E6308312D3
:100980000313A3008130A4000A168A115C270A12FF
:100990008A1183120313A301A30A02300A168A11D3
:1009A0002F270A128A11083083120313A300823002
:1009B000A4000A168A115C270A128A1183160313EF
:1009C000B701023083120313D9000430D800B930C4
:1009D000D700D70BE92CD80BE92CD90BE92CF02C3C
:1009E000013083160313B70714303702031CF92CA8
:1009F000FA2CE12C0A168A11DB260A128A11003A17
:100A00000319032D042D0D2D0A128A1195260A12A1
:100A10008A1183160313B801FA2C83120313A3015E
:100A2000A30A01300A168A112F270A128A116E3082
:100A300083120313A3008230A4000A168A115C27D4
:100A40000A128A1183160313380883120313D7007E
:100A5000D8015708AE005808AF000A128A11372093
:100A60000A128A11AE3083120313A3008130A4004E
:100A70000A168A115C270A128A1183120313A30132
:100A8000A30A02300A168A112F270A128A11831626
:100A90000313380803194D2D4E2D532DC430B500C6
:100AA0008130B600572DA230B5008130B600350830
:100AB00083120313A3008316031336088312031350
:100AC000A4000A168A115C270A128A1183160313DE
:100AD00038080A128A1107230A128A110A168A1183
:100AE000D9250A128A110A168A11DB260A128A11DE
:100AF000003A03197C2D7D2D7E2D042D83160313C2
:100B000038080A128A153D250A128A110130831607
:100B10000313B806FA2C0A128A110E288312031343
:100B2000CB00A301A30A01300A168A112F270A124B
:100B30008A11E43083120313A3008230A4000A1642
:100B40008A115C270A128A11831203134B08C90009
:100B5000CA014908AE004A08AF000A128A113720BC
:100B60000A128A11B13083120313A3008130A4004A
:100B70000A168A115C270A128A116A2EEC30A30029
:100B80008230A4000A168A115C270A128A11831285
:100B900003134308C900CA014908AE004A08AF0060
:100BA0000A128A1137200A128A11A63083120313FF
:100BB000A3008230A4000A168A115C270A128A1147
:100BC000942EF230A3008230A4000A168A115C270A
:100BD0000A128A11831203134408C900CA01490882
:100BE000AE004A08AF000A128A1137200A128A1191
:100BF000B03083120313A3008230A4000A168A11B6
:100C00005C270A128A11942EF830A3008230A400C7
:100C10000A168A115C270A128A11831203134508E7
:100C2000C900CA014908AE004A08AF000A128A1179
:100C300037200A128A117A3083120313A3008230FC
:100C4000A4000A168A115C270A128A11942E023017
:100C5000A3008330A4000A168A115C270A128A11A5
:100C6000831203134708AF004608AE000A128A1128
:100C700037200A128A11D63083120313A300823060
:100C8000A4000A168A115C270A128A11942EFD30DC
:100C9000A3008230A4000A168A115C270A128A1166
:100CA000831203134808C900CA014908AE004A0864
:100CB000AF000A128A1137200A128A118530831276
:100CC0000313A3008230A4000A168A115C270A12BB
:100CD0008A11942E053083120313A0000030A10066
:100CE0004208C900CA014908A2004A08A3000A161E
:100CF0008A11C6270A128A11831203132108003AA7
:100D00000319832E942E2008003A0319BE2D013AB0
:100D10000319E12D033A0319042E013A0319272E72
:100D2000073A0319472E942E08000A128A158821C3
:100D30000A128A1183120313C5000A128A150020B1
:100D40000A128A1183120313A301A30A01300A169F
:100D50008A112F270A128A11903083120313A300DD
:100D60008230A4000A168A115C270A128A118312A3
:100D700003134508C200C3014208AE004308AF0098
:100D80000A128A1137200A128A11E63083120313DD
:100D9000A3008230A4000A168A115C270A128A1165
:100DA00083120313A301A30A02300A168A112F2704
:100DB0000A128A11D53083120313A3008130A400D4
:100DC0000A168A115C270A128A1183120313C601BC
:100DD000023083120313C4000430C300B930C200D0
:100DE000C20BF02EC30BF02EC40BF02EF72E0130E9
:100DF00083120313C6070A304602031C002F012F7B
:100E0000E82EA301A30A02300A168A112F270A121C
:100E10008A11F73083120313A3008130A4000A164D
:100E20008A115C270A128A110A128A15BA240A1238
:100E30008A110A168A11D9250A128A1183120313FC
:100E4000A301A30A02300A168A112F270A128A1157
:100E50002A3083120313A3008230A4000A168A11D9
:100E60005C270A128A11023083120313C400043073
:100E7000C300B930C200C20B3B2FC30B3B2FC40BC6
:100E80003B2F422F0A128A1512200A128A110A12C7
:100E90008A153A240A128A110A168A11D1250A12D1
:100EA0008A11003A031D552F562F332F0A168A1127
:100EB000D5250A128A11003A031D5F2F602F332FA8
:100EC0000A128A1500200A128A1183120313A30141
:100ED000A30A01300A168A112F270A128A11B33089
:100EE00083120313A3008130A4000A168A115C2721
:100EF0000A128A1183120313C701023083120313EB
:100F0000C4000430C300B930C200C20B852FC30B2C
:100F1000852FC40B852F8C2F013083120313C70735
:100F20000A304702031C952F962F7D2F080083124D
:100F300003138715053083120313A700A70B9E2FF9
:100F4000A12FF730831203138705A801A901BD2F34
:100F5000A92FAA2F013083120313A8070318A90A87
:100F60000030A90730302902D53003192802031CAC
:100F7000BA2FBB2FBD2FFF30FD2F0608A700013071
:100F80000310A70CFF3E031DC02F271CC82FC92F1D
:100F9000A82FA801A901E02FCD2FCE2F0130831259
:100FA0000313A8070318A90A0030A9073030290243
:100FB000D53003192802031CDE2FDF2FE02FBB2FB3
:100FC0000608A70001300310A70CFF3E031DE32F06
:100FD0002718EB2FEC2FCC2F3A30A0000030A100C7
:100FE0000310280DA200290DA3000A128A154F2014
:100FF0000A128A11831203132008080001341934DD
:1010000001300A128A153E220A128A15063083120E
:101010000313A4002F30A300A30B0C28A40B0C284F
:1010200011280800831203130608A00004300310DF
:10103000A00CFF3E031D17282008A1000130A105C8
:101040002108031D242825282E2803305D020318BB
:101050002A282B282F280130DD072F28DD01033017
:101060005D06031D3428352847286D03031D3928E4
:101070003A2847280130DE065E0803194028412837
:1010800046286214E214620888000715ED01210366
:10109000031D4B284C284E280130ED000800831218
:1010A0000313A501A6012008210403195828592873
:1010B0008E280130A400652801300310A00DA10D79
:1010C000FF3E031D5D280130A407A11F6828692881
:1010D0005C2801300310A50DA60DFF3E031D6A28F4
:1010E00021082302031D762820082202031C7928E8
:1010F0007A2881282008A2022108031CA303A30246
:10110000251401300310A10CA00CFF3E031D822802
:101110000130A402031D8D288E2869282608A1000D
:101120002508A000080083120313A400C7309F0500
:1011300024080739A20002300310A20DFF3E031D50
:101140009C280310220D9F040F3083120313A2006A
:10115000A20BA828AB28831203131F151F08A20097
:1011600002300310A20CFF3E031DB1282218B9283B
:10117000BA28AE281E08A200A3012208A300A201DB
:101180002208A5002308A600831603131E08831255
:101190000313A200A3012208A5042308A604FF301C
:1011A000A5050330A6052608A1002508A000080013
:1011B0000A128A1197270A128A1583120313AC00A8
:1011C0001A3083120313AB00F730AA00AA0BE628EB
:1011D000AB0BE628EB280A128A1197270A128A1508
:1011E00083120313AD001A3083120313AB00F730E0
:1011F000AA00AA0BF928AB0BF928FE280A128A11BB
:1012000097270A128A1583120313AE002C0A0319BA
:101210000A290B2915292D0A03190F291029152927
:101220002E0A031D142915291729FF302E292D08F0
:10123000A0002E08A1002C080A168A118D270A1278
:101240008A1583120313AF001E302F02031C2929B5
:101250002A292C2900302E292F081E3C0800831231
:101260000313A501A31F352936293D29A209A30986
:10127000A20A0319A30A0130A500A11F4029412990
:101280004629A009A109A00A0319A10A20082104DE
:1012900003194B294C2979290130A4005829013020
:1012A0000310A00DA10DFF3E031D50290130A4071E
:1012B000A11F5B295C294F2921082302031D6229F4
:1012C00020082202031C652966296C292008A20235
:1012D0002108031CA303A30201300310A10CA00CDE
:1012E000FF3E031D6D290130A402031D78297929D1
:1012F0005C29250803197D297E298329A209A309D0
:10130000A20A0319A30A2308A1002208A0000800CA
:1013100083160313300883120313B50083160313D7
:101320002F0883120313B400831603132E088312AD
:101330000313B300831603132D0883120313B200A3
:10134000B51FA329A429AF29B209B309B409B50966
:10135000B20A0319B30A0319B40A0319B50A003013
:10136000A3000030A2000330A1002030A000903084
:10137000AE000130AF000030B0000030B1003208E4
:10138000AE0733080318330FC629C729AF0734083F
:101390000318340FCC29CD29B00735080318350AB6
:1013A000B1073108A7003008A6002F08A5002E08B5
:1013B000A4000A128A1564230A128A1583120313E1
:1013C0002008080083120313A20062156208880037
:1013D000F0302205A00062080F392004E200620804
:1013E0008800E21562088800053083120313A0000C
:1013F000A00BF829FB29F73083120313E2056208DA
:101400008800053083120313A000A00B052A082AC8
:10141000831203132208A00004300310A00DFF3E26
:10142000031D0D2AF0302005A10062080F392104A8
:10143000E20062088800E215620888000530831225
:101440000313A000A00B222A252AF73083120313CE
:10145000E20562088800053083120313A000A00B88
:101460002F2A322A063083120313A1002F30A00046
:10147000A00B382AA10B382A3D2A08008312031337
:10148000A200FB30E20562088800F0302205A000CF
:1014900062080F392004E20062088800E215620841
:1014A0008800053083120313A000A00B552A582A88
:1014B000F73083120313E2056208880005308312B7
:1014C0000313A000A00B622A652A831203132208CB
:1014D000A00004300310A00DFF3E031D6A2AF03067
:1014E0002005A10062080F392104E200620888008B
:1014F000E21562088800053083120313A000A00BD8
:101500007F2A822AF73083120313E20562088800DB
:10151000053083120313A000A00B8C2A8F2A0630FB
:1015200083120313A1002F30A000A00B952AA10B5A
:10153000952A9A2A0800663083120313B1000230FC
:10154000B20000302F02F63003192E020318A92A28
:10155000AA2AAC2A6430FE2A02302F026630031910
:101560002E02031CB42AB52AB72A0030FE2A713095
:10157000A6000130A7002E080B3EA0002F0803187C
:10158000013EFF3EA1006430A2000030A3000A1615
:101590008A11B4260A128A15831203132108A9009E
:1015A0002008A8000A128A15FF220A128A15643040
:1015B00083120313B00026083002B3002709031872
:1015C000013EB400B41FE52AE62AE82AB301B401BB
:1015D0003408803AFF0080307F02031DF12A653015
:1015E0003302031CF42AF52AFB2A64308312031306
:1015F000B3000030B40083120313330808008312D1
:101600000313AB01A71F052B062B0D2BA609A7095A
:10161000A60A0319A70A0130AB00A91F102B112B32
:10162000182BA809A909A80A0319A90A0130AB06B1
:10163000AC01AD012608270403191F2B202B552BC5
:101640000130AA002C2B01300310A60DA70DFF3E80
:10165000031D242B0130AA07A71F2F2B302B232B70
:1016600001300310AC0DAD0DFF3E031D312B2708DB
:101670002902031D3D2B26082802031C402B412B69
:10168000482B2608A8022708031CA903A9022C142A
:1016900001300310A70CA60CFF3E031D492B01309F
:1016A000AA02031D542B552B302B2B080319592B41
:1016B0005A2B5F2BAC09AD09AC0A0319AD0A2D08F2
:1016C000A7002C08A6000800003083120313AC000A
:1016D0000030AB000030AA000030A900230822042B
:1016E000210420040319752B762BC12B0130AD008A
:1016F000842B0130A8000310A00DA10DA20DA30D95
:10170000A80B7B2B0130AD07A31F872B882B792BD0
:101710000130A8000310A90DAA0DAB0DAC0DA80B4C
:101720008A2B23082702031D9F2B22082602031D54
:101730009F2B21082502031D9F2B20082402031C38
:10174000A22BA32BB22B2008A4022108031C210FDB
:10175000A5022208031C220FA6022308031C230F44
:10176000A702291401300310A30CA20CA10CA00C99
:10177000FF3E031DB32B0130AD02031DC02BC12B57
:10178000882B2C08A3002B08A2002A08A1002908F6
:10179000A00008000B08F50000300B190130013ED5
:1017A000D32B0310F50CFF3E031DD12B751CD92B39
:1017B000DA2BED2B0130F50000300B190130013E22
:1017C000E32B0310F50DFF3E031DE12B7508FF3AD7
:1017D0008B05013083120313E100831203130C08FD
:1017E000F50000308C1A0130013EF82B0310F50C87
:1017F000FF3E031DF62B751CFE2BFF2B312C1A0808
:10180000F9007408031D052C062C132CCC30790626
:10181000031D0B2C0C2C312C790883160313B100FB
:101820000130F400312C033074020318182C192CE9
:10183000222C7408B13E84007908831380000130A3
:10184000F407312C790883160313B400F401DD305A
:101850007906031D2C2C2D2C312C013083120313FF
:10186000E00078088A0077088400760E8300FE0E78
:101870007E0E09000A168A11FA250A128A15003A04
:10188000031D432C442C452CB92C0A168A1107261B
:101890000A128A1583120313A200AE2CBB30220653
:1018A000031D532C542CB92C0130EC00B92C220808
:1018B000EB000230EC00B92C22030319602C622CDF
:1018C0000130632C0030EA00AC2C053022020318F2
:1018D0006A2C6B2CAC2C2208E8000130E900AC2CFF
:1018E0002208031D742C762C0130772C0030E70081
:1018F000AC2C2208A10004300310A10CFF3E031DF4
:101900007C2C2108E3000F30E3052208E4000130BD
:10191000E4050230630203188E2C8F2CAC2C0130AE
:10192000E500AC2CAA302206031D972C982CAC2C79
:101930000130E600AC2C6B08013A03195C2C033A29
:101940000319652C013A0319702C073A0319792CF5
:10195000143A0319922CAC2CEC01B92C6C08003A07
:1019600003194E2C013A0319572C033A03199B2CE7
:10197000AC2C080083120313A401A501FB308705DA
:10198000FD308705F12C0A168A1129260A128A15BC
:10199000013083120313A4070318A50A0030A5071A
:1019A00031302405A20000302505A30022082304BD
:1019B000031DDB2CDC2CF12C0A128A1512200A12D2
:1019C0008A150A168A11D1250A128A15003A0319B6
:1019D000EA2CEB2CF12C0A168A11D9250A128A1549
:1019E0003C2D831203130608A20003300310A20C3F
:1019F000FF3E031DF62C2218FE2CFF2CC32C87144F
:101A00000030A9000030A8000030A7000030A60078
:101A10000A168A1129260A128A1501308312031325
:101A2000A607003003180130A70700300318013063
:101A3000A807003003180130A9072908031D2E2D1F
:101A40002808031D2E2D2708031D2E2DC830260221
:101A5000031D2A2D031C2D2D2E2D082D003083163D
:101A60000313B0000030AF000030AE000030AD0016
:101A7000FD30831203138705080083120313D0007F
:101A8000CF0100300A128A1593200A128A15831298
:101A900003132108AF002008AE000A128A159B220A
:101AA0000A128A1583120313D30002300A128A1510
:101AB00093200A128A15831203132108A800200814
:101AC000A7000A168A1104270A128A158312031323
:101AD0002808D2002708D1000A128A15D8200A1235
:101AE0008A1583120313D4005630A0006E30A10073
:101AF0000A128A1508270A128A15831203136E0820
:101B0000A2005608A3005208A5005108A4005408DA
:101B1000A60053080A128A11BF200A128A158312DE
:101B2000031350080A168A117B260A128A1583129B
:101B30000313A301A30A02300A168A112F270A12DF
:101B40008A15193083120313A3008230A4000A16E9
:101B50008A115C270A128A1583120313C2015308E3
:101B6000C3006E08C4005608C5005208C7005108DB
:101B7000C6005408C80050080A128A118E250A129D
:101B80008A1583120313D501023083120313CE008A
:101B90000430CD00B930CC00CC0BCC2DCD0BCC2DEE
:101BA000CE0BCC2DD32D0A168A11DB260A128A15EC
:101BB000003A0319DC2DDD2DE32D0A128A1195263A
:101BC0000A128A151D2E283083120313A00000303C
:101BD000A1005508013EA200003003180130A30007
:101BE0000A168A11C6270A128A15831203132008BF
:101BF0002104031DFC2DFD2D132E0130CF074F08AE
:101C0000C2005308C3006E08C4005608C50052083D
:101C1000C7005108C6005408C80050080A128A11AB
:101C20008E250A128A15013083120313D507C83096
:101C30005502031C1C2E1D2EC42D0800FB308316DC
:101C400003138805F7308805EF308805DF308805F5
:101C5000BF3088057F308805343083120313A40019
:101C6000F130A300A30B322EA40B322EFB308312D3
:101C70000313E2056208880062080F393038E20079
:101C800062088800E2156208880005308312031399
:101C9000A300A30B492E4C2EF73083120313E20549
:101CA00062088800053083120313A300A30B562E8D
:101CB000592E0D3083120313A400FB30A300A30B95
:101CC0005F2EA40B5F2E8312031362080F39303886
:101CD000E20062088800E21562088800053083127D
:101CE0000313A300A30B722E752EF7308312031378
:101CF000E20562088800053083120313A300A30BDA
:101D00007F2E822E033083120313A4009730A3008A
:101D1000A30B882EA40B882E8312031362080F399D
:101D20003038E20062088800E21562088800053059
:101D300083120313A300A30B9B2E9E2EF730831256
:101D40000313E20562088800053083120313A30021
:101D5000A30BA82EAB2E033083120313A4009730DD
:101D6000A300A30BB12EA40BB12E831203136208A0
:101D70000F392038E20062088800E2156208880006
:101D8000053083120313A300A30BC42EC72EF73014
:101D900083120313E20562088800053083120313DF
:101DA000A300A30BD12ED42E033083120313A4005F
:101DB0009730A300A30BDA2EA40BDA2E28300A12D8
:101DC0008A153E220A128A1508300A128A153E2206
:101DD0000A128A1501300A128A153E220A128A1541
:101DE000063083120313A4002F30A300A30BF62E9A
:101DF000A40BF62EFB2E06300A128A153E220A127A
:101E00008A150C300A128A153E220A128A15080019
:101E1000243084000530FF0083138001840AFF0B07
:101E20000C2FFE30831603138605FE308312031336
:101E300086052F3083120313A300BF30A200A20B2C
:101E40001F2FA30B1F2F83120313061413308312AB
:101E50000313A200A20B2A2F831603130614831266
:101E60000313AB01AC01482F352F362F01308312FD
:101E70000313AB070318AC0A0030AC0700302C0288
:101E8000C93003192B02031C462F472F482FFF2F61
:101E900006184B2F4C2F342FAB01AC01632F502F62
:101EA000512F013083120313AB070318AC0A003023
:101EB000AC0700302C02C93003192B02031C612F20
:101EC000622F632FFF2F061C662F672F4F2FAB014A
:101ED000AC017E2F6B2F6C2F013083120313AB07E5
:101EE0000318AC0A0030AC0700302C02C9300319CB
:101EF0002B02031C7C2F7D2F7E2FFF2F0618812F96
:101F0000822F6A2FA901AA01AB01AC019B2F882F58
:101F1000892F013083120313AB070318AC0A00307A
:101F2000AC0700302C02C93003192B02031C992F77
:101F30009A2F9B2FFF2F061C9E2F9F2F872F163027
:101F400083120313A200A20BA32F0000831203131A
:101F5000061CAB2FAC2FD82F2908243E840001305B
:101F6000A2002A08073C013EB72F0310A20DFF3E36
:101F7000031DB52F220883138004AB01AC01D42FBD
:101F8000C12FC22F013083120313AB070318AC0A11
:101F90000030AC0700302C02C93003192B02031C9F
:101FA000D22FD32FD42FFF2F0618D72FD82FC02FE3
:101FB0000130AA0708302A02031CDF2FE02F842FEC
:101FC0000130A90705302902031CE72FE82F832FD2
:101FD00026082507A20027082207A30024082307B4
:101FE00028060319F42FF52FF62FFF2F2008840061
:101FF000240883138000210884002608800008003C
:102B9A008316031306140800831203135E08080041
:102BAA00831203136708080083120313071508002A
:102BBA0064008001840A0406031900340406DE2D29
:102BCA0083160313061683120313DE01DD01013097
:102BDA00ED0008002430831603139800333099005F
:102BEA0090308312031398000800831203130C0811
:102BFA00A00005300310A00CFF3E031DFF2D200886
:102C0A0001390800831203130C08A00005300310D1
:102C1A00A00CFF3E031D0C2E201C142E152E072E71
:102C2A001A080800FE30831203138705FD30870552
:102C3A000715003083160313B0000030AF000030D0
:102C4A00AE000030AD0008008312031307142D2EC6
:102C5A002E2EFE30831203138705E43083120313EA
:102C6A00A000372E382EA00B362E00000800831243
:102C7A0003130714402E412EFE30831203138705D7
:102C8A00053083120313A100AB30A000A00B4B2E1A
:102C9A00A10B4B2E08008316031305148514051582
:102CAA0084309F003F30831203139F059F171F1420
:102CBA000F3083120313A000A00B612E642E0800AC
:102CCA0083120313A1008316031318088312031334
:102CDA00A00001300310A00CFF3E031D6F2E201C24
:102CEA00772E782E682E2108990008008312031384
:102CFA00A200AA300A168A1165260A168A1102301B
:102D0A000A168A1165260A168A11831203132208E3
:102D1A000A168A1165260A168A11080083120313F5
:102D2A00A401A52E2308840000080A128A15E221AC
:102D3A000A168A11013083120313A3070130A4076C
:102D4A0023088400831300080319AC2EAD2EB32E7A
:102D5A0010302402031CB22EB32E972E08008312C1
:102D6A000313A401A501201CBB2EBC2EC22E2208CF
:102D7A00A4070318A50A2308A50701300310A20D0A
:102D8A00A30DFF3E031DC32E01300310A10CA00C9E
:102D9A00FF3E031DCA2E20082104031DD52ED62E60
:102DAA00B82E2508A1002408A00008000A128A15D6
:102DBA0012200A168A110A128A153A240A168A1148
:102DCA00013083120313A3000A168A11D1250A16A9
:102DDA008A11003A031DF22EF32E002F0A168A11C9
:102DEA00D5250A168A11003A031DFC2EFD2E002F46
:102DFA0083120313A3018312031323080800831207
:102E0A0003132808AA002708A9002908003EAB00D6
:102E1A002A080318013EFE3EAC00AC1F152F162FE0
:102E2A001B2FAB09AC09AB0A0319AC0A2C08A10089
:102E3A002B08A0001A30A2000030A3000A168A113B
:102E4A00B4260A168A11831203132108A80020083F
:102E5A00A700080083120313A5002308031D362FB9
:102E6A00372F392F0130A30011302302031C3E2FC4
:102E7A003F2F412F1030A300023025060319462F99
:102E8A00472F492F0130A5002503031D4D2F4E2F33
:102E9A00522F23087F3EA400552F2308BF3EA400CB
:102EAA0024080A128A153E220A168A110800831279
:102EBA000313A501782F2408FF00230884000A12AF
:102ECA008A1100210A168A110A128A15E2210A16A3
:102EDA008A11013083120313A3070318A40A0030CE
:102EEA00A4070130A5072408FF00230884000A125A
:102EFA008A1100210A168A11003A0319852F862F92
:102F0A008C2F10302502031C8B2F8C2F602F08006A
:102F1A0083120313A20022082002031C952F962F66
:102F2A009C2F2008210203189B2F9C2FA82F2108D1
:102F3A002002031CA12FA22FAA2F20082202031C61
:102F4A00A72FA82FAA2F2008C52F20082202031C6A
:102F5A00AF2FB02FB62F220821020318B52FB62F94
:102F6A00C22F21082202031CBB2FBC2FC42F220808
:102F7A002002031CC12FC22FC42F2208C52F2108EB
:102F8A00080083120313200821040319CD2FCE2F22
:102F9A00FB2F0130A400DA2F01300310A00DA10D80
:102FAA00FF3E031DD22F0130A407A11FDD2FDE2F04
:102FBA00D12F21082302031DE42F20082202031C1B
:102FCA00E72FE82FEE2F2008A2022108031CA303F3
:102FDA00A30201300310A10CA00CFF3E031DEF2F2A
:102FEA000130A402031DFA2FFB2FDE2F2308A100B4
:062FFA002208A0000800FF
:02400E00723FFF
:00000001FF
